:1000000000308A00272800000A108A100A1182078F
:100010003F3406345B344F3466346D347D340734FA
:100020007F346F342430840083130008031926289A
:100030000130F800F701F70B1B28F80B1A284A309B
:10004000F700F70B21282428800B18280800030844
:100050001F398300A001A101A201FF30A300831674
:100060001F149F141F159F1107309C00831300302D
:1000700086007F308800003087008312A3002008AC
:100080000420A4008600A31323088316870083128C
:100090008717A312230883168700831287126E30F6
:1000A000A400122021080420A4008600A312230823
:1000B0008316870083128716A313230883168700ED
:1000C000831287136E30A4001220881F7C28A20A96
:1000D0002208093C031C6E28A00A75282208093C46
:1000E00003187528A10AA001A2012108093C0318E0
:0C00F0007C28A001A101A2013F286300B0
:02400E00713F00
:00000001FF
;PIC16F877A
;CRC=9109  CREATED="24-dic.-23 08:52"
